:100000000C9434000C9446000C9446000C9446006A
:100010000C9446000C9446000C9446000C94460048
:100020000C9446000C9446000C9446000C94460038
:100030000C9446000C9446000C9446000C94460028
:100040000C9446000C9446000C9446000C94460018
:100050000C9446000C9446000C9446000C94460008
:100060000C9446000C94460011241FBECFEFD8E03C
:10007000DEBFCDBF21E0A0E0B1E001C01D92A13301
:10008000B207E1F70E9428010C94A3090C94000028
:100090002091C00025FFFCCF9093C6009091C00036
:1000A00095FFFCCF8093C60008959091C00095FF06
:1000B000FCCF8093C600089584E88093BC008091B3
:1000C000BC0087FFFCCF8091BB00089584EC809337
:1000D000BC008091BC0087FFFCCF8091BB000895DD
:1000E0008093BB0084E88093BC008091BC0087FFB4
:1000F000FCCF089584EA8093BC008091BC0087FF08
:10010000FCCF0895CF92DF92EF92FF921F93CF938F
:10011000DF93C82F0E947A008CEE0E9470008C2F13
:100120000E947000CCEBD0E014E918830E947A00A2
:100130008DEE0E9470000E946600C82ED12CE12C2A
:10014000F12CFE2CED2CDC2CCC240E946600C80E79
:10015000D11CE11CF11CFE2CED2CDC2CCC240E94CB
:100160005C001883A7019601280F311D411D511D08
:10017000CA01B901DF91CF911F91FF90EF90DF90FD
:10018000CF900895CF93C82F0E947A008CEE0E94E2
:1001900070008C2F0E9470000E947A008DEE0E94E9
:1001A000700084E88093BC008091BC0087FFFCCF86
:1001B0008091BB0094E99093BC00CF9108951F9368
:1001C000CF93DF931F92CDB7DEB7182F69830E94BC
:1001D0007A008CEE0E947000812F0E94700069816D
:1001E0006093BB0084E88093BC008091BC0087FFD3
:1001F000FCCF84E98093BC000F90DF91CF911F91D9
:1002000008950F931F93CF93DF93C82F0E947A0016
:100210008CEE0E9470008C2F0E947000CCEBD0E01E
:1002200014E918830E947A008DEE0E9470000E94EB
:100230006600082F0E945C001883282F30E0922F60
:100240008827800F911DDF91CF911F910F91089505
:10025000CF93DF93CDB7DEB7A2970FB6F894DEBF8A
:100260000FBECDBF80E190E09093C5008093C400A5
:1002700088E18093C1008091C10080688093C100B3
:100280008091C00082608093C0008EE08093C200A5
:1002900080E28093B8008091B8008A3018F48AE038
:1002A0008093B8008091B9008C7F8093B90088E872
:1002B0000E94010190930501809304018AE80E9445
:1002C000010190930301809302018CE80E940101D7
:1002D00090930101809300018EE80E9401019093A8
:1002E00015018093140180E90E9401019093170188
:1002F0008093160182E90E94010190931901809375
:10030000180184E90E94010190931B0180931A0156
:1003100086E90E94010190931D0180931C0188E9E8
:100320000E94010190931F0180931E018AE90E949F
:10033000010190930B0180930A018CE90E94010155
:1003400090930D0180930C018EE90E94010190931E
:100350000F0180930E0181EA0E94C2008093200168
:1003600081EE0E940101909322018093210183EE8E
:100370000E94C200809323010E947A008CEE0E94AA
:10038000700084EE0E94700004E90093BC000E949B
:100390007A008DEE0E9470000E946600182F0E9465
:1003A0005C000093BC008F70282F30E0C90140E151
:1003B000149F800D911D1124909328018093270193
:1003C0000E947A008CEE0E94700085EE0E94700000
:1003D0000093BC000E947A008DEE0E9470000E9483
:1003E0006600182F0E945C000093BC0012951F70DD
:1003F000212F30E050E1859F200D311D11243093D5
:1004000026012093250187EE0E94C20080932401DB
:1004100060E585EF0E94DF0066E284EF0E94DF0066
:100420008FE39DE0A3E081509040A040E1F700C041
:1004300000008AEF0E948200DC01CB0174E0B595D8
:10044000A795979587957A95D1F780930601909314
:100450000701A0930801B093090187EF0E94820071
:10046000DC01CB01E4E0B595A79597958795EA95D2
:10047000D1F78093100190931101A0931201B093D2
:1004800013010E947A008CEE0E9470008DEF0E9492
:100490007000B4E9B093BC000E947A008DEE0E9417
:1004A00070000E946600082F10E0102F00270E94A5
:1004B0005C00E4E9E093BC009801280F311DC901FC
:1004C000092E000CAA0BBB0B8093290190932A01E3
:1004D000A0932B01B0932C018FE493EC0197F1F7DB
:1004E00000C0000040910601509107016091080191
:1004F000709109018091040190910501A0E0B0E0A4
:100500006A017B0114E0F594E794D794C7941A9597
:10051000D1F7C81AD90AEA0AFB0A03E0759567956C
:10052000579547950A95D1F7880F991FAA1FBB1FAA
:100530009A01AB01281B390B4A0B5B0BA0910201FE
:10054000B09103010E9407084B015C013BE0B594A8
:10055000A794979487943A95D1F7A7019601C7017C
:10056000B6010E94A2079B01AC016CE0559547952E
:10057000379527956A95D1F7A0910001B0910101B7
:100580000E940708DC01CB017EE0B595A795979501
:1005900087957A95D1F7A5019401280F391F4A1F35
:1005A0005B1F2B833C834D835E8320932D0130930F
:1005B0002E0140932F0150933001A5E0B0E00E943E
:1005C000FC07DC01CB0180589F4FAF4FBF4F892FF5
:1005D0009A2FAB2FBB27A7FDBA956C0100E010E066
:1005E000F8EEEF2EF3E0FF2EC601B7010E94B2072E
:1005F000CB016AE070E00E94B207282FC7016AE0D1
:1006000070E00E94C6077B0180E3820F0E945500C4
:100610000130110519F48EE20E9455000F5F1F4F43
:100620000430110509F783E490EB0E94480089E04B
:100630000E9455002B813C814D815E81CB80DC8006
:10064000ED80FE80FF0CCC08DC2C76016C2D7C2D1F
:100650008C2D9C2D345F414051096109710981093C
:1006600091092AA339A349835A836F83788789879D
:100670009A8759016A017B018C010E940F082E8B19
:100680003F8B488F598F6A8F7B8F8C8F9D8F3091D6
:100690001E013E8F40911F014B8750911C015F8FBF
:1006A00080911D018C8790911A0198A3A0911B0144
:1006B000AD87B0901701A09016011B2D110F110BE3
:1006C000C12ED12EE12EF12E012F2AA139A149816F
:1006D0005A816F81788589859A850E940F080CE080
:1006E0000E943F0919012A013B014C01B0901901F8
:1006F000A09018011B2D110F110BC12ED12EE12E30
:10070000F12E012F2E893F89488D598D6A8D7B8D61
:100710008C8D9D8D0E940F0808E00E9458095101A0
:100720006201730184010E94760970588F4F9F4FB8
:10073000A0901401B0901501C12CD12CE12CF12C0A
:1007400000E010E00E940F0801E20E9458092E8785
:100750003F87488B598B6A8B7B8B8C8B9D8BA0E062
:100760000E94880909F45FC1AE8C1B85110F110B23
:10077000BB84C12ED12EE12EF12E012F2E893F896F
:10078000488D598D6A8D7B8D8C8D9D8D0E940F08B3
:1007900019012A013B014C01AF8C1C85110F110B73
:1007A000BC84C12ED12EE12EF12E012F2AA139A118
:1007B00049815A816F81788589859A850E940F08C1
:1007C00001E10E943F0959016A017B018C019101FD
:1007D000A201B301C4010E94760919012A013B015B
:1007E0004C018091100190911101A0911201B091E2
:1007F000130120E030E040E150E0281B390B4A0BA8
:100800005B0BDA01C90169017A01FF0CCC08DC2C11
:1008100076019C01AD016C2D7C2D8C2D9C2D0FE162
:100820000E943F09F901B42FA52F68877987898332
:100830009A8328A19D85990F990B3D85492F592FA2
:10084000692F792F892F03E20E943F0959016A011C
:100850007B018C019101A201B301C4010E947609C0
:1008600059016A017B018C019F014B2F5A2F68852A
:10087000798589819A810E947F094901542E652ECC
:10088000B62FA72FF82FE92F03E00E943F0954014C
:10089000C52CD62CEB2EFA2E0F2F1E2F0E947F096F
:1008A00059016A017B01782E192F03E00E943F094C
:1008B000072D0E947F0903E00E943F095401C52CC7
:1008C000D62CEB2EFA2E0F2F1E2F0E947F0902E04E
:1008D0000E943F090F2F0E947F0901E00E943F09FB
:1008E0000F2F0E947F09AE84BF84C888D988EA8808
:1008F000FB880C891D890E946A082B87232E498357
:100900005A836F83788789879A870DE00E945809F8
:10091000322E432E542E652E762E872E982E9C87AF
:1009200030910F0120910E01932F990F990BA32C59
:10093000B42CC52CD62CE72CF82C092D1C85492F5E
:10094000592F692F792F892F0E940F080E940F08B5
:1009500009E10E94580959016A017B018C012B852C
:10096000322D49815A816F81788589859A850E94C7
:100970007609322E432E542E652E762E872E982EF3
:100980009C8730910D0120910C01932F990F990BA9
:10099000AB84B22CC980DA80EF80F88409851A858F
:1009A000492F592F692F792F892F0E940F0803E1B2
:1009B0000E94580959016A017B018C01232D342DB5
:1009C000452D562D672D782D892D9C850E94760901
:1009D00008E00E94580949013A01B62FA72FF82FC5
:1009E000E92F30910B0120910A01932F990F990B58
:1009F000492F592F692F792F892F04E00E943F0931
:100A000059016A017B018C019401A3016B2F7A2F9C
:100A10008F2F9E2F0E94760949015A01FF24EB2C4B
:100A2000DA2CC92C03C0C12CD12C7601A12CB12CFD
:100A300000E117E29801012E000C440B550BC70191
:100A4000B6010E94DA07CA01B9012AE030E040E0AD
:100A500050E00E94DA07262FC8016AE070E00E9489
:100A6000C6078B0180E3820F0E94550032E0A31677
:100A7000B10419F48EE20E9455004FEFA41AB40A93
:100A800055E0A516B104B1F680E20E94550088E653
:100A90000E94550081E690E50E94480089E00E948E
:100AA0005500CB80DC80ED80FE808CE2D81A81E09E
:100AB000E80AF1088090290190902A01A0902B016A
:100AC000B0902C013EE0880C991CAA1CBB1C3A95E6
:100AD000D1F78091270190912801092E000CAA0BD3
:100AE000BB0B44E1880F991FAA1FBB1F4A95D1F782
:100AF000881A990AAA0ABB0AA0912501B091260179
:100B0000A70196010E940708861A970AA80AB90A3F
:100B100090E4990EA11CB11C6FE0B594A794979432
:100B200087946A95D1F7A09124010A2E000CBB0B83
:100B30000E9407082B013C017AE075946794579452
:100B400047947A95D1F7A0912301B0E00E94FC0769
:100B5000DC01CB01EBE0B595A79597958795EA95D4
:100B6000D1F7BC01CD0170588F4F9F4FA301920167
:100B70000E94A207DC01CB01FAE0B595A7959795F5
:100B80008795FA95D1F79C01AD01405E5F4FA0912A
:100B90002101B09122010E940708DC01CB01905E87
:100BA000AF4FBF4FBC01CD01AEE0959587957795CE
:100BB0006795AA95D1F7A50194010E94A2076B0140
:100BC0007C01BFE09595879577956795BA95D1F7A4
:100BD0009B01AC010E94A2079B01AC0117E0559557
:100BE0004795379527951A95D1F7A0912001B0E048
:100BF0000E94FC07DC01CB0104E0B595A795979511
:100C000087950A95D1F7A7019601281B390B4A0B46
:100C10005B0BDA01C90157FF03C080E090E0DC0103
:100C200081309105A10539E1B30724F080E090E01F
:100C3000A0E0B9E1BC01CD012CE0959587957795B1
:100C400067952A95D1F70E9414072FE632E143E811
:100C50005FE30E9473060E94E5062AE030E040E070
:100C600050E00E94DA0769017A01A12CB12C08EE4C
:100C700013E09801012E000C440B550BC701B6017F
:100C80000E94DA07CA01B9012AE030E040E050E0F2
:100C90000E94DA07262FC8016AE070E00E94C607AA
:100CA0008B0180E3820F0E94550041E0A416B1043D
:100CB00019F48EE20E9455005FEFA51AB50A84E090
:100CC000A816B104B1F685E20E94550089E00E94A1
:100CD00055009FEFAAE1B7EB9150A040B040E1F77B
:100CE00000C0000095CB0E9487060C9468070E9404
:100CF000610758F00E945A0740F029F45F3F29F03D
:100D00000C94510751110C949C070C9457070E94A6
:100D1000790768F39923B1F3552391F3951B550B8C
:100D2000BB27AA2762177307840738F09F5F5F4FBE
:100D3000220F331F441FAA1FA9F335D00E2E3AF0FD
:100D4000E0E832D091505040E695001CCAF72BD015
:100D5000FE2F29D0660F771F881FBB1F2617370766
:100D60004807AB07B0E809F0BB0B802DBF01FF2798
:100D700093585F4F3AF09E3F510578F00C9451071D
:100D80000C949C075F3FE4F3983ED4F386957795E7
:100D90006795B795F7959F5FC9F7880F911D969551
:100DA000879597F90895E1E0660F771F881FBB1FAD
:100DB000621773078407BA0720F0621B730B840B5A
:100DC000BA0BEE1F88F7E09508950E94810788F01E
:100DD0009F5798F0B92F9927B751B0F0E1F0660FFF
:100DE000771F881F991F1AF0BA95C9F714C0B13040
:100DF00091F00E949B07B1E008950C949B07672F28
:100E0000782F8827B85F39F0B93FCCF3869577956E
:100E10006795B395D9F73EF4909580957095619557
:100E20007F4F8F4F9F4F0895E89409C097FB3EF482
:100E300090958095709561957F4F8F4F9F4F992327
:100E4000A9F0F92F96E9BB279395F69587957795A5
:100E50006795B795F111F8CFFAF4BB0F11F460FF65
:100E60001BC06F5F7F4F8F4F9F4F16C0882311F0BD
:100E700096E911C0772321F09EE8872F762F05C0D1
:100E8000662371F096E8862F70E060E02AF09A956C
:100E9000660F771F881FDAF7880F9695879597F961
:100EA000089597F99F6780E870E060E008959FEFEC
:100EB00080EC089500240A941616170618060906F1
:100EC000089500240A9412161306140605060895C0
:100ED000092E0394000C11F4882352F0BB0F40F448
:100EE000BF2B11F460FF04C06F5F7F4F8F4F9F4F88
:100EF000089557FD9058440F551F59F05F3F71F00A
:100F00004795880F97FB991F61F09F3F79F0879570
:100F10000895121613061406551FF2CF4695F1DFF9
:100F200008C0161617061806991FF1CF8695710589
:100F3000610508940895E894BB2766277727CB01BD
:100F400097F90895DB018F939F930E94FC07BF914F
:100F5000AF91A29F800D911DA39F900DB29F900D08
:100F600011240895AA1BBB1B51E107C0AA1FBB1F78
:100F7000A617B70710F0A61BB70B881F991F5A9525
:100F8000A9F780959095BC01CD01089597FB072E98
:100F900016F4009407D077FD09D00E94B20707FC31
:100FA00005D03EF4909581959F4F08957095619579
:100FB0007F4F0895A1E21A2EAA1BBB1BFD010DC095
:100FC000AA1FBB1FEE1FFF1FA217B307E407F507F9
:100FD00020F0A21BB30BE40BF50B661F771F881FD5
:100FE000991F1A9469F760957095809590959B016B
:100FF000AC01BD01CF0108950E949409A59F900DF9
:10100000B49F900DA49F800D911D11240895B7FFEA
:101010000C94FC070E94FC07821B930B0895DF933E
:10102000CF931F930F939A9DF02D219FF00D8B9DD1
:10103000F00D8A9DE02DF10D039FF00D029FE00D54
:10104000F11D4E9DE00DF11D5E9DF00D4F9DF00DCB
:101050007F936F93BF92AF925F934F93D5010E949E
:1010600094098B01AC01D7010E949409EB01E80FB0
:10107000F91FD6010E945F082F913F91D6010E946F
:101080009409C60FD71FE81FF91FAF91BF910E94A7
:101090005F082F913F910E949409C60FD71FE81F48
:1010A000F91FD6010E949409E60FF71F9801BE01AF
:1010B000CF0111240F911F91CF91DF9108950E94CC
:1010C0009409460F571FC81FD91F08F43196089579
:1010D000689401C0E894F92FF12B12F00C949C084D
:1010E000A0E0B0E0E6E7F8E00C940E09092E0594C4
:1010F00022F40E94F808112392F4F0E80F26FFEF83
:10110000E094F09400951095B094C094D094A1947C
:10111000BF0ACF0ADF0AEF0AFF0A0F0B1F0B0E945C
:10112000A70807FC0E94F808CDB7DEB7ECE00C94E6
:101130002A09689401C0E8948F929F92CF93DF931D
:101140000E94A708DF91CF919F908F9008958824E7
:101150009924F401E401B0E49F93AA279A158B0423
:101160009C04ED05FE05CF05D007A10798F4AD2F2F
:10117000DC2FCF2FFE2FE92D982C892E982F872F2B
:10118000762F652F542F432F322F2227B85031F757
:10119000BF9127C01B2EBF91BB27220F331F441FB7
:1011A000551F661F771F881F991F881C991CEE1FEB
:1011B000FF1FCC1FDD1FAA1FBB1F8A149B04EC0559
:1011C000FD05CE05DF05A007B10748F08A189B088A
:1011D000EC09FD09CE09DF09A00BB10B21601A94BF
:1011E000E1F62EF49401AF01BE01CD01000C08958B
:1011F0006095709580959095309540955095219586
:101200003F4F4F4F5F4F6F4F7F4F8F4F9F4F08950F
:101210002F923F924F925F926F927F928F929F9206
:10122000AF92BF92CF92DF92EF92FF920F931F93F4
:10123000CF93DF93CDB7DEB7CA1BDB0B0FB6F894A5
:10124000DEBF0FBECDBF09942A88398848885F84E5
:101250006E847D848C849B84AA84B984C884DF8056
:10126000EE80FD800C811B81AA81B981CE0FD11D3A
:101270000FB6F894DEBF0FBECDBFED0108950F93FA
:10128000083090F0982F872F762F652F542F432FFB
:10129000322F22270850F4CF220F331F441F551F2F
:1012A000661F771F881F991F0A95B2F70F9108953F
:1012B00097FB10F8169400080F93083098F0085028
:1012C000232F342F452F562F672F782F892F902DBE
:1012D000F4CF05949795879577956795579547959A
:1012E000379527950A95AAF70F9108952A0D3B1D6A
:1012F0004C1D5D1D6E1D7F1D801F911F08952A19B5
:101300003B094C095D096E097F09800B910B08951B
:101310000024A7FD00942A173005400550056005FC
:101320007005800590050895A29FB001B39FC0018C
:10133000A39F700D811D1124911DB29F700D811D01
:0A1340001124911D0895F894FFCFC9
:00000001FF
